:100000000C9446000C9465000C9465000C946500FB
:100010000C9465000C9465000C9465000C946500CC
:100020000C9465000C9465000C9465000C946500BC
:100030000C9465000C94C1020C9465000C9465004E
:100040000C9465000C9465000C9465000C9465009C
:100050000C9465000C9465000C9465000C9465008C
:100060000C9465000C9465000C9465000C9465007C
:100070000C9465000C9465000C9465000C9465006C
:100080000C9465000C9465000C94650011241FBE4F
:10009000CFEFD0E4DEBFCDBF11E0A0E0B1E0ECE6F1
:1000A000F9E000E00BBF02C007900D92A231B1074A
:1000B000D9F721E0A2E1B1E001C01D92A033B2075F
:1000C000E1F70E94CF030C94B4040C940000CF938A
:1000D000DF9300D01F92CDB7DEB789837B836A831D
:1000E00089818A3031F48A819B81BC018DE00E9434
:1000F000670080EC90E0FC018081882F90E08072A6
:100100009927892BB1F386EC90E02981FC012083AB
:1001100080E090E00F900F900F90DF91CF910895C5
:10012000CF93DF9300D0CDB7DEB789836A838A810E
:10013000282F30E081E090E002C0880F991F2A95B7
:10014000E2F7982F898189230F900F90DF91CF914B
:100150000895CF93DF93CDB7DEB788E290E02FEE1E
:10016000FC012083000086E290E0FC01808160E0D9
:100170000E949000882311F481E3B8C086E290E0E9
:10018000FC01808161E00E949000882311F484E3E7
:10019000ADC086E290E0FC01808162E00E949000A8
:1001A000882311F487E3A2C086E290E0FC018081FD
:1001B00063E00E949000882311F48AE297C088E2ED
:1001C00090E02FEDFC012083000086E290E0FC012E
:1001D000808160E00E949000882311F482E386C051
:1001E00086E290E0FC01808161E00E94900088231B
:1001F00011F485E37BC086E290E0FC01808162E03F
:100200000E949000882311F488E370C086E290E099
:10021000FC01808163E00E949000882311F480E358
:1002200065C088E290E02FEBFC012083000086E2AD
:1002300090E0FC01808160E00E949000882311F42E
:1002400083E354C086E290E0FC01808161E00E947B
:100250009000882311F486E349C086E290E0FC0117
:10026000808162E00E949000882311F489E33EC0FF
:1002700086E290E0FC01808163E00E949000882388
:1002800011F483E233C088E290E02FE7FC01208381
:10029000000086E290E0FC01808160E00E94900016
:1002A000882311F481E422C086E290E0FC01808181
:1002B00061E00E949000882311F482E417C086E276
:1002C00090E0FC01808162E00E949000882311F49C
:1002D00083E40CC086E290E0FC01808163E00E9430
:1002E0009000882311F484E401C080E0DF91CF9175
:1002F0000895CF93DF93CDB7DEB72C970FB6F89460
:10030000DEBF0FBECDBF6D837E838F839887298725
:100310003A874B875C878D819E81AF81B88529851F
:100320003A854B855C85BC01CD010E949204DC01BD
:10033000CB0189839A83AB83BC8389819A81AB810A
:10034000BC81892B8A2B8B2B29F489859A85AB85D7
:10035000BC8511C089859A85AB85BC858D839E83BC
:10036000AF83B88789819A81AB81BC8189879A875D
:10037000AB87BC87D0CFBC01CD012C960FB6F894CB
:10038000DEBF0FBECDBFDF91CF910895CF93DF9336
:10039000CDB7DEB781E890E02BE0FC01208388E850
:1003A00090E02DE730E0FC01318320838FE690E080
:1003B00022E0FC01208384E890E0FC01118210829D
:1003C00080910E0190910F01A0911001B091110147
:1003D0008093130190931401A0931501B09316011B
:1003E0008FE590E02FE530E0F90120812068FC01E5
:1003F00020830000DF91CF910895CF93DF93CDB795
:10040000DEB781E890E0FC0110820000DF91CF911F
:1004100008950F931F93CF93DF931F92CDB7DEB74D
:100420001982A4C08981282F30E0C901880F991F43
:10043000820F931F880F991F880F991F835E9E4F0D
:10044000FC0120813181428153818981682F70E0D4
:10045000CB01880F991F860F971F880F991F880F50
:10046000991F875E9E4FFC0180819181A281B3819B
:10047000281739074A075B0708F449C08981082F04
:1004800010E08981282F30E0C901880F991F820F61
:10049000931F880F991F880F991F8F5D9E4FFC0136
:1004A000408151818981282F30E0C901880F991F2F
:1004B000820F931F880F991F880F991F895E9E4F87
:1004C000FC0180819181FA0109959C01C801880F86
:1004D000991F800F911F880F991F880F991F895EA0
:1004E0009E4FFC01318320838981282F30E0C90190
:1004F000880F991F820F931F880F991F880F991FCC
:10050000835E9E4FFC0110821182128213828981C8
:10051000682F70E08981282F30E0C901880F991F6A
:10052000820F931F880F991F880F991F835E9E4F1C
:10053000FC0180819181A281B3819C01AD012C5984
:100540003F4F4F4F5F4FCB01880F991F860F971F6B
:10055000880F991F880F991F835E9E4FFC0120838F
:1005600031834283538389818F5F8983898182307C
:1005700008F458CF00000F90DF91CF911F910F9199
:1005800008951F920F9200905F000F921124009027
:100590005B000F922F933F934F935F936F937F93E3
:1005A0008F939F93AF93BF93EF93FF93CF93DF937B
:1005B000CDB7DEB78091130190911401A091150180
:1005C000B09116010197A109B1098093130190938D
:1005D0001401A0931501B09316018091130190911D
:1005E0001401A0911501B0911601892B8A2B8B2B38
:1005F00091F40E94090280910E0190910F01A09147
:100600001001B09111018093130190931401A093F4
:100610001501B09316010000DF91CF91FF91EF918A
:10062000BF91AF919F918F917F916F915F914F910A
:100630003F912F910F9000925B000F9000925F000E
:100640000F901F901895CF93DF9300D000D0CDB7B7
:10065000DEB769837A838B839C8389819A81AB819E
:10066000BC8180930E0190930F01A0931001B09371
:10067000110180910E0190910F01A0911001B09194
:1006800011018093130190931401A0931501B0936D
:10069000160100000F900F900F900F90DF91CF91F7
:1006A0000895CF93DF9300D01F92CDB7DEB79B8321
:1006B0008A830E94A90089838A819B818130910568
:1006C00059F082309105A9F0892B09F01FC081E013
:1006D00090E09B838A831AC08981882329F481E072
:1006E00090E09B838A8312C082E090E09B838A83A0
:1006F0000DC08981882329F481E090E09B838A835F
:1007000004C082E090E09B838A8300008A819B8101
:100710008130910531F08230910531F0892B41F023
:1007200008C010922F0105C080E880932F0101C0FE
:1007300000008A819B810F900F900F90DF91CF91E5
:100740000895CF93DF9300D0CDB7DEB79A83898326
:1007500089819A81009719F0019731F00AC081E0F0
:1007600090E09A83898305C081E090E09A83898331
:10077000000089819A81009751F0019709F008C023
:1007800085E290E020912F01FC01208301C0000050
:1007900089819A810F900F90DF91CF910895CF9327
:1007A000DF931F92CDB7DEB7198284E290E02FEF7E
:1007B000FC01208385E290E0FC01108287E290E05A
:1007C00020EFFC01208388E290E02FE0FC012083F1
:1007D0008981282F30E0C901880F991F820F931F4C
:1007E000880F991F880F991F895E9E4FFC01118207
:1007F00010828981282F30E0C901880F991F820F4C
:10080000931F880F991F880F991F9C01275E3E4FE9
:1008100084E690E0A0E0B0E0F90180839183A283B8
:10082000B3838981282F30E0C901880F991F820F77
:10083000931F880F991F880F991F835E9E4FFC019D
:1008400010821182128213828981282F30E0C9011F
:10085000880F991F820F931F880F991F880F991F68
:100860008F5D9E4F21E533E0FC0131832083898138
:100870008F5F89838981282F30E0C901880F991FF4
:10088000820F931F880F991F880F991F895E9E4FB3
:10089000FC01118210828981282F30E0C901880F64
:1008A000991F820F931F880F991F880F991F9C0112
:1008B000275E3E4F84E690E0A0E0B0E0F90180833F
:1008C0009183A283B3838981282F30E0C901880FE7
:1008D000991F820F931F880F991F880F991F835E9E
:1008E0009E4FFC0110821182128213828981282F6F
:1008F00030E0C901880F991F820F931F880F991F3D
:10090000880F991F8F5D9E4F21EA33E0FC013183F0
:10091000208364E670E080E090E00E9423030E9460
:10092000C601FFCFA1E21A2EAA1BBB1BFD010DC001
:10093000AA1FBB1FEE1FFF1FA217B307E407F5078F
:1009400020F0A21BB30BE40BF50B661F771F881F6B
:10095000991F1A9469F760957095809590959B0101
:0C096000AC01BD01CF010895F894FFCF59
:10096C000000000200000000670000000000010011
:02097C00000079
:00000001FF
